:020000040000FA
:100000000128831603131930990083160313C03097
:100010008700831603138601831203138601831658
:100020000313880183120313880183160313181224
:100030001815831203139817181683160313C73065
:1000400092008312031304309200831203130C30C6
:100050009700831203136430950087018C1E2E28AD
:10006000831203131A08523C031943281A084C3C04
:10007000031946281A08483C031949281A08593C0C
:10008000031950282E28861006142E2886140610D0
:100090002E28C830150203192E280A3095072E285D
:0E00A0000030150203192E280A3095022E2872
:00000001FF
